S00D00006C61625F362E7372656353
S11300000C94FE000C940E010C940E010C940E0141
S11300100C940E010C940E010C940E010C940E0120
S11300200C940E010C940E010C940E010C940E0110
S11300300C940E010C940E010C940E010C940E0100
S11300400C940E010C940E010C940E010C940E01F0
S11300500C940E010C940E010C940E010C940E01E0
S11300600C940E010C940E010C940E010C940E01D0
S11300700C940E010C940E010C940E010C940E01C0
S11300800C940E010C940E010C940E010C940E01B0
S11300900C940E010C940E010C940E010C940E01A0
S11300A00C940E010C940E010C940E010C940E0190
S11300B00C940E010C940E010C940E010C940E0180
S11300C00C940E010C940E010C940E010C940E0170
S11300D00C940E010C940E010C940E010C940E0160
S11300E00C940E010C940E010C940E010C940E0150
S11300F00C940E010C940E010C940E010C940E0140
S11301000C940E010C940E010C940E010C940E012F
S11301100C940E010C940E010C940E010C940E011F
S11301200C940E010C940E010C940E010C940E010F
S11301300C940E010C940E010C940E010C940E01FF
S11301400C940E010C940E010C940E010C940E01EF
S11301500C940E010C940E010C940E010C940E01DF
S11301600C940E010C940E010C940E010C940E01CF
S11301700C940E010C940E010C940E010C940E01BF
S11301800C940E010C940E010C940E010C940E01AF
S11301900C940E010C940E010C940E010C940E019F
S11301A00C940E010C940E010C940E010C940E018F
S11301B00C940E010C940E010C940E010C940E017F
S11301C00C940E010C940E010C940E010C940E016F
S11301D00C940E010C940E010C940E010C940E015F
S11301E00C940E010C940E010C940E010C940E014F
S11301F00C940E010C940E010C940E0111241FBEDC
S1130200CFEFCDBFDFE3DEBF00E00CBF18BE19BEE9
S11302101ABE1BBE0E9410010C9413020C94000021
S1130220CF93DF931F921F92CDB7DEB70E94E001F8
S11302300E9488010E94660180E096E02FEFFC0195
S1130240218380E096E02FEFFC01258319821A8236
S11302501AC089819A810E94CE0189819A81880F6E
S1130260991F01960E94CE0129813A81C901880F04
S1130270991F820F931F0A970E94CE0189819A8148
S1130280019689839A8389819A810A9714F3DECF30
S1130290CF93DF931F921F92CDB7DEB789836A8312
S11302A080EA96E020E1FC01268389810E94FC011A
S11302B08A810E94FC0180EA96E020E1FC0125830A
S11302C000000F900F90DF91CF910895CF93DF93AB
S11302D0CDB7DEB761E082E10E94480160EE88E1BB
S11302E00E94480160E580E10E94480161E08DE0E0
S11302F00E94480182E496E020E4FC01208387E523
S113030096E021E0FC0120830000DF91CF91089565
S1130310CF93DF93CDB7DEB780E696E028E0FC010B
S1130320258380E696E028E0FC01218380E696E0C0
S113033024E0FC01228380EA99E025E0FC01268385
S113034080EA99E020EAFC01278380EA99E023E02F
S1130350FC01258380EA99E028E1FC012483000064
S1130360DF91CF910895CF93DF931F92CDB7DEB77E
S11303708983000080EA99E0FC018181882F90E064
S113038080729927892BB1F380EA99E02981FC01D5
S1130390208300000F90DF91CF910895CF93DF93D6
S11303A01F921F92CDB7DEB789839A8389819A8180
S11303B00E94B30100000F900F90DF91CF91089538
S11303C0CF93DF93CDB7DEB780EA96E020E9FC0156
S11303D0258380EA96E020EBFC01218380EA96E005
S11303E020E4FC01228380EC9BE02CE5FC012083CB
S11303F00000DF91CF910895CF93DF931F92CDB783
S1130400DEB7898380EC9BE02981FC012383000013
S113041080EC9BE0FC0182818823D4F700000F90DC
S10D0420DF91CF910895F894FFCF07
S9030000FC
