:100000000C94FE000C9416010C9460010C941601E3
:100010000C9416010C9416010C9416010C94160104
:100020000C9416010C9416010C9416010C941601F4
:100030000C9416010C9416010C9416010C941601E4
:100040000C9416010C9416010C9416010C941601D4
:100050000C9416010C9416010C9416010C941601C4
:100060000C9416010C9416010C9416010C941601B4
:100070000C9416010C9416010C9416010C941601A4
:100080000C9416010C9416010C9416010C94160194
:100090000C9416010C9416010C9416010C94160184
:1000A0000C9416010C9416010C9416010C94160174
:1000B0000C9416010C9416010C9416010C94160164
:1000C0000C9416010C9416010C9416010C94160154
:1000D0000C9416010C9416010C9416010C94160144
:1000E0000C9416010C9416010C9416010C94160134
:1000F0000C9416010C9416010C9416010C94160124
:100100000C9416010C9416010C9416010C94160113
:100110000C9416010C9416010C9416010C94160103
:100120000C9416010C9416010C9416010C941601F3
:100130000C9416010C9416010C9416010C941601E3
:100140000C9416010C9416010C9416010C941601D3
:100150000C9416010C9416010C9416010C941601C3
:100160000C9416010C9416010C9416010C941601B3
:100170000C9416010C9416010C9416010C941601A3
:100180000C9416010C9416010C9416010C94160193
:100190000C9416010C9416010C9416010C94160183
:1001A0000C9416010C9416010C9416010C94160173
:1001B0000C9416010C9416010C9416010C94160163
:1001C0000C9416010C9416010C9416010C94160153
:1001D0000C9416010C9416010C9416010C94160143
:1001E0000C9416010C9416010C9416010C94160133
:1001F0000C9416010C9416010C94160111241FBEC8
:10020000CFEFCDBFDFE3DEBF00E00CBF18BE19BEED
:100210001ABE1BBE20E2A0E0B0E201C01D92A130D8
:10022000B207E1F70E9418010C94D2020C9400006E
:10023000CF93DF931F92CDB7DEB70E9488020E9452
:1002400042020E9416020E949A0119821092002016
:100250000E94A801809100208130E1F710920020D7
:1002600088E20E94F801898389810E946D0289E2F7
:100270000E94F801898389810E946D028AE20E94AE
:10028000F801898389810E946D028BE20E94F80146
:10029000898389810E946D028CE20E94F801898322
:1002A00089810E946D028DE20E94F8018983898113
:1002B0000E946D0280E496E022E0FC012187CACF13
:1002C0001F920F9200903F000F921124009038006F
:1002D0000F921092380000903A000F9210923A005C
:1002E00000903B000F9210923B008F939F93EF93EF
:1002F000FF93CF93DF93CDB7DEB780E496E0FC01A8
:10030000118681E0809300200000DF91CF91FF9162
:10031000EF919F918F910F9000923B000F90009270
:100320003A000F90009238000F9000923F000F901B
:100330001F901895CF93DF93CDB7DEB780EA90E09A
:1003400022E0FC01228378940000DF91CF91089590
:10035000CF93DF931F92CDB7DEB7198288E20E9458
:10036000F801898389810E946D0289E20E94F80167
:10037000898389810E946D028AE20E94F801898343
:1003800089810E946D028BE20E94F8018983898134
:100390000E946D028CE20E94F801898389810E948B
:1003A0006D028DE20E94F801898300000F90DF91B9
:1003B000CF910895CF93DF931F921F92CDB7DEB7F1
:1003C00089836A8380EA96E020E1FC0126838981A3
:1003D0000E94A4028A810E94A40280EA96E020E1A1
:1003E000FC01258300000F900F90DF91CF910895BD
:1003F000CF93DF931F92CDB7DEB7898380EA96E073
:1004000020E1FC012683898180680E94A4020E9469
:10041000BB0280EA96E020E1FC01258380EC9BE0B2
:10042000FC0183810F90DF91CF910895CF93DF93EB
:10043000CDB7DEB761E282E10E94DA0160EE88E1C9
:100440000E94DA0160E580E10E94DA0161E08DE05E
:100450000E94DA0180E496E020E4FC01228380E43B
:1004600096E020E4FC01228780E496E023E0FC0192
:10047000268B80E496E022E0FC0121870000DF91DA
:10048000CF910895CF93DF93CDB7DEB780E696E0A6
:1004900028E0FC01258380E696E028E0FC0121832A
:1004A00080E696E024E0FC01228380EA99E025E0E2
:1004B000FC01268380EA99E020EAFC01278380EA98
:1004C00099E023E0FC01258380EA99E028E1FC0122
:1004D00024830000DF91CF910895CF93DF931F9283
:1004E000CDB7DEB78983000080EA99E0FC01818105
:1004F000882F90E080729927892BB1F380EA99E0E8
:100500002981FC01208300000F90DF91CF91089595
:10051000CF93DF93CDB7DEB780EA96E020E9FC0108
:10052000258380EA96E020EBFC01218380EA96E0B7
:1005300020E4FC01228380EC9BE02CE5FC0120837D
:100540000000DF91CF910895CF93DF931F92CDB735
:10055000DEB7898380EC9BE02981FC0123830000C6
:1005600080EC9BE0FC0182818823D4F700000F908F
:10057000DF91CF910895CF93DF93CDB7DEB780ECB5
:100580009BE027E3FC012383000080EC9BE0FC015F
:1005900082818823D4F780EC9BE0FC018381DF918A
:0805A000CF910895F894FFCFFC
:00000001FF
