S00D00006C61625F362E7372656353
S11300000C94FE000C9416010C9464010C941601DB
S11300100C9416010C9416010C9416010C94160100
S11300200C9416010C9416010C9416010C941601F0
S11300300C9416010C9416010C9416010C941601E0
S11300400C9416010C9416010C9416010C941601D0
S11300500C9416010C9416010C9416010C941601C0
S11300600C9416010C9416010C9416010C941601B0
S11300700C9416010C9416010C9416010C941601A0
S11300800C9416010C9416010C9416010C94160190
S11300900C9416010C9416010C9416010C94160180
S11300A00C9416010C9416010C9416010C94160170
S11300B00C9416010C9416010C9416010C94160160
S11300C00C9416010C9416010C9416010C94160150
S11300D00C9416010C9416010C9416010C94160140
S11300E00C9416010C9416010C9416010C94160130
S11300F00C9416010C9416010C9416010C94160120
S11301000C9416010C9416010C9416010C9416010F
S11301100C9416010C9416010C9416010C941601FF
S11301200C9416010C9416010C9416010C941601EF
S11301300C9416010C9416010C9416010C941601DF
S11301400C9416010C9416010C9416010C941601CF
S11301500C9416010C9416010C9416010C941601BF
S11301600C9416010C9416010C9416010C941601AF
S11301700C9416010C9416010C9416010C9416019F
S11301800C9416010C9416010C9416010C9416018F
S11301900C9416010C9416010C9416010C9416017F
S11301A00C9416010C9416010C9416010C9416016F
S11301B00C9416010C9416010C9416010C9416015F
S11301C00C9416010C9416010C9416010C9416014F
S11301D00C9416010C9416010C9416010C9416013F
S11301E00C9416010C9416010C9416010C9416012F
S11301F00C9416010C9416010C94160111241FBEC4
S1130200CFEFCDBFDFE3DEBF00E00CBF18BE19BEE9
S11302101ABE1BBE20E2A0E0B0E201C01D92A130D4
S1130220B207E1F70E9418010C9427030C94000014
S1130230CF93DF931F92CDB7DEB7109200200E94B8
S1130240DD020E9497020E944F020E949E010E94BA
S1130250AC010E94DE01809100208130E1F7198217
S113026088E20E943102898389810E94C20289E264
S11302700E943102898389810E94C2028AE20E941B
S11302803102898389810E94C2028BE20E94310279
S1130290898389810E94C2028CE20E94310289838F
S11302A089810E94C2028DE20E9431028983898180
S11302B00E94C2020E94DE0180E496E022E0FC017A
S11302C0218710920020C7CF1F920F9200903F0009
S11302D00F921124009038000F9210923800009071
S11302E03A000F9210923A0000903B000F92109245
S11302F03B008F939F93EF93FF93CF93DF93CDB7FF
S1130300DEB780E496E0FC01118681E08093002052
S11303100000DF91CF91FF91EF919F918F910F900A
S113032000923B000F9000923A000F900092380028
S11303300F9000923F000F901F901895CF93DF937A
S1130340CDB7DEB780EA90E022E0FC012283789406
S11303500000DF91CF910895CF93DF931F92CDB723
S1130360DEB7198288E20E943102898389810E9462
S1130370C20289E20E943102898389810E94C202F9
S11303808AE20E943102898389810E94C2028BE23F
S11303900E943102898389810E94C2028CE20E94F8
S11303A03102898389810E94C2028DE20E94310256
S11303B0898300000F90DF91CF910895CF93DF934D
S11303C01F92CDB7DEB7198282E20E94310289837F
S11303D089810E94C20283E20E9431028983898159
S11303E00E94C20284E20E943102898389810E94B0
S11303F0C20285E20E943102898389810E94C2027D
S113040086E20E943102898389810E94C20287E2C6
S11304100E943102898389810E94C20200000F90E8
S1130420DF91CF910895CF93DF931F921F92CDB7A1
S1130430DEB789836A8380EA96E020E1FC012683A3
S113044089810E94F9028A810E94F90280EA96E079
S113045020E1FC01258300000F900F90DF91CF91E4
S11304600895CF93DF931F92CDB7DEB7898380EAD7
S113047096E020E1FC012683898180680E94F902CC
S11304800E94100380EA96E020E1FC01258380ECC1
S11304909BE0FC0183810F90DF91CF910895CF936E
S11304A0DF93CDB7DEB780E496E020E436E0F901CF
S11304B022812064FC01228380E496E020E436E07B
S11304C0F90122852064FC01228780E496E020E47F
S11304D036E0F90126892360FC01268B80E496E04E
S11304E020E436E0F90121852260FC01218761E0E6
S11304F082E10E94130260E282E10E94130260EE34
S113050088E10E94130260E580E10E94130261E029
S11305108DE00E94130260E581E10E94130262E013
S11305208EE00E9413020000DF91CF910895CF93D3
S1130530DF93CDB7DEB780E696E028E0FC012583A3
S113054080E696E028E0FC01218380E696E024E042
S1130550FC01228380EA99E025E0FC01268380EAFD
S113056099E020EAFC01278380EA99E023E0FC017A
S1130570258380EA99E028E1FC0124830000DF91CF
S1130580CF910895CF93DF931F92CDB7DEB78983C0
S1130590000080EA99E0FC018181882F90E080725C
S11305A09927892BB1F380EA99E02981FC01208302
S11305B000000F90DF91CF910895CF93DF93CDB7D3
S11305C0DEB780EA96E020E9FC01258380EA96E024
S11305D020EBFC01218380EA96E020E4FC012283E5
S11305E080EC9BE02CE5FC0120830000DF91CF919F
S11305F00895CF93DF931F92CDB7DEB7898380EC44
S11306009BE02981FC012383000080EC9BE0FC013A
S113061082818823D4F700000F90DF91CF91089551
S1130620CF93DF93CDB7DEB780EC9BE027E3FC01EB
S11306302383000080EC9BE0FC0182818823D4F7B3
S113064080EC9BE0FC018381DF91CF910895F894C5
S1050650FFCFD6
S9030000FC
