:100000000C94FE000C940E010C940E010C940E0145
:100010000C940E010C940E010C940E010C940E0124
:100020000C940E010C940E010C940E010C940E0114
:100030000C940E010C940E010C940E010C940E0104
:100040000C940E010C940E010C940E010C940E01F4
:100050000C940E010C940E010C940E010C940E01E4
:100060000C940E010C940E010C940E010C940E01D4
:100070000C940E010C940E010C940E010C940E01C4
:100080000C940E010C940E010C940E010C940E01B4
:100090000C940E010C940E010C940E010C940E01A4
:1000A0000C940E010C940E010C940E010C940E0194
:1000B0000C940E010C940E010C940E010C940E0184
:1000C0000C940E010C940E010C940E010C940E0174
:1000D0000C940E010C940E010C940E010C940E0164
:1000E0000C940E010C940E010C940E010C940E0154
:1000F0000C940E010C940E010C940E010C940E0144
:100100000C940E010C940E010C940E010C940E0133
:100110000C940E010C940E010C940E010C940E0123
:100120000C940E010C940E010C940E010C940E0113
:100130000C940E010C940E010C940E010C940E0103
:100140000C940E010C940E010C940E010C940E01F3
:100150000C940E010C940E010C940E010C940E01E3
:100160000C940E010C940E010C940E010C940E01D3
:100170000C940E010C940E010C940E010C940E01C3
:100180000C940E010C940E010C940E010C940E01B3
:100190000C940E010C940E010C940E010C940E01A3
:1001A0000C940E010C940E010C940E010C940E0193
:1001B0000C940E010C940E010C940E010C940E0183
:1001C0000C940E010C940E010C940E010C940E0173
:1001D0000C940E010C940E010C940E010C940E0163
:1001E0000C940E010C940E010C940E010C940E0153
:1001F0000C940E010C940E010C940E0111241FBEE0
:10020000CFEFCDBFDFE3DEBF00E00CBF18BE19BEED
:100210001ABE1BBE0E9410010C94B7010C94000082
:10022000CF93DF93CDB7DEB70E946D010E944301EB
:1002300082E10E94250188E10E94250180E10E945F
:1002400025018DE00E942501F3CFCF93DF931F920C
:10025000CDB7DEB7898380EA96E020E1FC012683F2
:10026000898180680E9489010E94A00180EA96E04D
:1002700020E1FC01258380EC9BE0FC0183810F9051
:10028000DF91CF910895CF93DF93CDB7DEB782E1B1
:100290000E94890181E00E94890188E10E94890110
:1002A00080EE0E94890180E10E94890180E50E9420
:1002B00089018DE00E94890181E00E94890182E428
:1002C00096E020E4FC01208387E596E021E0FC0134
:1002D00020830000DF91CF910895CF93DF93CDB7B6
:1002E000DEB780EA96E020EBFC01258380EA96E009
:1002F00020EBFC01218380EA96E020E4FC012283CC
:1003000080EC9BE020EDFC0120830000DF91CF9189
:100310000895CF93DF931F92CDB7DEB7898380EC2A
:100320009BE02981FC012383000080EC9BE0FC0121
:1003300082818038D1F700000F90DF91CF9108952E
:10034000CF93DF93CDB7DEB780EC9BE027E3FC01D2
:100350002383000080EC9BE0FC0182818038D1F790
:1003600080EC9BE0FC018381DF91CF910895F894AC
:02037000FFCFBD
:00000001FF
